{
  "_format": "hh-sol-artifact-1",
  "contractName": "DegenGhosts",
  "sourceName": "contracts/DegenGhosts.sol",
  "abi": [
    {
      "inputs": [
        {
          "internalType": "string",
          "name": "_name",
          "type": "string"
        },
        {
          "internalType": "string",
          "name": "_symbol",
          "type": "string"
        },
        {
          "internalType": "string",
          "name": "_initBaseURI",
          "type": "string"
        },
        {
          "internalType": "string",
          "name": "_initNotRevealedUri",
          "type": "string"
        }
      ],
      "stateMutability": "nonpayable",
      "type": "constructor"
    },
    {
      "anonymous": false,
      "inputs": [
        {
          "indexed": true,
          "internalType": "address",
          "name": "owner",
          "type": "address"
        },
        {
          "indexed": true,
          "internalType": "address",
          "name": "approved",
          "type": "address"
        },
        {
          "indexed": true,
          "internalType": "uint256",
          "name": "tokenId",
          "type": "uint256"
        }
      ],
      "name": "Approval",
      "type": "event"
    },
    {
      "anonymous": false,
      "inputs": [
        {
          "indexed": true,
          "internalType": "address",
          "name": "owner",
          "type": "address"
        },
        {
          "indexed": true,
          "internalType": "address",
          "name": "operator",
          "type": "address"
        },
        {
          "indexed": false,
          "internalType": "bool",
          "name": "approved",
          "type": "bool"
        }
      ],
      "name": "ApprovalForAll",
      "type": "event"
    },
    {
      "anonymous": false,
      "inputs": [
        {
          "indexed": true,
          "internalType": "address",
          "name": "previousOwner",
          "type": "address"
        },
        {
          "indexed": true,
          "internalType": "address",
          "name": "newOwner",
          "type": "address"
        }
      ],
      "name": "OwnershipTransferred",
      "type": "event"
    },
    {
      "anonymous": false,
      "inputs": [
        {
          "indexed": true,
          "internalType": "address",
          "name": "from",
          "type": "address"
        },
        {
          "indexed": true,
          "internalType": "address",
          "name": "to",
          "type": "address"
        },
        {
          "indexed": true,
          "internalType": "uint256",
          "name": "tokenId",
          "type": "uint256"
        }
      ],
      "name": "Transfer",
      "type": "event"
    },
    {
      "inputs": [
        {
          "internalType": "address",
          "name": "",
          "type": "address"
        }
      ],
      "name": "addressMintedBalance",
      "outputs": [
        {
          "internalType": "uint256",
          "name": "",
          "type": "uint256"
        }
      ],
      "stateMutability": "view",
      "type": "function"
    },
    {
      "inputs": [
        {
          "internalType": "address",
          "name": "to",
          "type": "address"
        },
        {
          "internalType": "uint256",
          "name": "tokenId",
          "type": "uint256"
        }
      ],
      "name": "approve",
      "outputs": [],
      "stateMutability": "nonpayable",
      "type": "function"
    },
    {
      "inputs": [
        {
          "internalType": "address",
          "name": "owner",
          "type": "address"
        }
      ],
      "name": "balanceOf",
      "outputs": [
        {
          "internalType": "uint256",
          "name": "",
          "type": "uint256"
        }
      ],
      "stateMutability": "view",
      "type": "function"
    },
    {
      "inputs": [],
      "name": "baseExtension",
      "outputs": [
        {
          "internalType": "string",
          "name": "",
          "type": "string"
        }
      ],
      "stateMutability": "view",
      "type": "function"
    },
    {
      "inputs": [],
      "name": "baseURI",
      "outputs": [
        {
          "internalType": "string",
          "name": "",
          "type": "string"
        }
      ],
      "stateMutability": "view",
      "type": "function"
    },
    {
      "inputs": [],
      "name": "cost",
      "outputs": [
        {
          "internalType": "uint256",
          "name": "",
          "type": "uint256"
        }
      ],
      "stateMutability": "view",
      "type": "function"
    },
    {
      "inputs": [
        {
          "internalType": "uint256",
          "name": "tokenId",
          "type": "uint256"
        }
      ],
      "name": "getApproved",
      "outputs": [
        {
          "internalType": "address",
          "name": "",
          "type": "address"
        }
      ],
      "stateMutability": "view",
      "type": "function"
    },
    {
      "inputs": [
        {
          "internalType": "address",
          "name": "owner",
          "type": "address"
        },
        {
          "internalType": "address",
          "name": "operator",
          "type": "address"
        }
      ],
      "name": "isApprovedForAll",
      "outputs": [
        {
          "internalType": "bool",
          "name": "",
          "type": "bool"
        }
      ],
      "stateMutability": "view",
      "type": "function"
    },
    {
      "inputs": [],
      "name": "maxMintAmount",
      "outputs": [
        {
          "internalType": "uint256",
          "name": "",
          "type": "uint256"
        }
      ],
      "stateMutability": "view",
      "type": "function"
    },
    {
      "inputs": [],
      "name": "maxSupply",
      "outputs": [
        {
          "internalType": "uint256",
          "name": "",
          "type": "uint256"
        }
      ],
      "stateMutability": "view",
      "type": "function"
    },
    {
      "inputs": [
        {
          "internalType": "uint256",
          "name": "_mintAmount",
          "type": "uint256"
        }
      ],
      "name": "mint",
      "outputs": [],
      "stateMutability": "payable",
      "type": "function"
    },
    {
      "inputs": [
        {
          "internalType": "uint256",
          "name": "_mintAmount",
          "type": "uint256"
        }
      ],
      "name": "mintFree",
      "outputs": [],
      "stateMutability": "payable",
      "type": "function"
    },
    {
      "inputs": [],
      "name": "name",
      "outputs": [
        {
          "internalType": "string",
          "name": "",
          "type": "string"
        }
      ],
      "stateMutability": "view",
      "type": "function"
    },
    {
      "inputs": [],
      "name": "nftAddressLimit",
      "outputs": [
        {
          "internalType": "uint256",
          "name": "",
          "type": "uint256"
        }
      ],
      "stateMutability": "view",
      "type": "function"
    },
    {
      "inputs": [],
      "name": "nftPerAddressLimit",
      "outputs": [
        {
          "internalType": "uint256",
          "name": "",
          "type": "uint256"
        }
      ],
      "stateMutability": "view",
      "type": "function"
    },
    {
      "inputs": [],
      "name": "notRevealedUri",
      "outputs": [
        {
          "internalType": "string",
          "name": "",
          "type": "string"
        }
      ],
      "stateMutability": "view",
      "type": "function"
    },
    {
      "inputs": [],
      "name": "owner",
      "outputs": [
        {
          "internalType": "address",
          "name": "",
          "type": "address"
        }
      ],
      "stateMutability": "view",
      "type": "function"
    },
    {
      "inputs": [
        {
          "internalType": "uint256",
          "name": "tokenId",
          "type": "uint256"
        }
      ],
      "name": "ownerOf",
      "outputs": [
        {
          "internalType": "address",
          "name": "",
          "type": "address"
        }
      ],
      "stateMutability": "view",
      "type": "function"
    },
    {
      "inputs": [
        {
          "internalType": "bool",
          "name": "_state",
          "type": "bool"
        }
      ],
      "name": "pause",
      "outputs": [],
      "stateMutability": "nonpayable",
      "type": "function"
    },
    {
      "inputs": [],
      "name": "paused",
      "outputs": [
        {
          "internalType": "bool",
          "name": "",
          "type": "bool"
        }
      ],
      "stateMutability": "view",
      "type": "function"
    },
    {
      "inputs": [],
      "name": "renounceOwnership",
      "outputs": [],
      "stateMutability": "nonpayable",
      "type": "function"
    },
    {
      "inputs": [],
      "name": "reveal",
      "outputs": [],
      "stateMutability": "nonpayable",
      "type": "function"
    },
    {
      "inputs": [],
      "name": "revealed",
      "outputs": [
        {
          "internalType": "bool",
          "name": "",
          "type": "bool"
        }
      ],
      "stateMutability": "view",
      "type": "function"
    },
    {
      "inputs": [
        {
          "internalType": "address",
          "name": "from",
          "type": "address"
        },
        {
          "internalType": "address",
          "name": "to",
          "type": "address"
        },
        {
          "internalType": "uint256",
          "name": "tokenId",
          "type": "uint256"
        }
      ],
      "name": "safeTransferFrom",
      "outputs": [],
      "stateMutability": "nonpayable",
      "type": "function"
    },
    {
      "inputs": [
        {
          "internalType": "address",
          "name": "from",
          "type": "address"
        },
        {
          "internalType": "address",
          "name": "to",
          "type": "address"
        },
        {
          "internalType": "uint256",
          "name": "tokenId",
          "type": "uint256"
        },
        {
          "internalType": "bytes",
          "name": "_data",
          "type": "bytes"
        }
      ],
      "name": "safeTransferFrom",
      "outputs": [],
      "stateMutability": "nonpayable",
      "type": "function"
    },
    {
      "inputs": [
        {
          "internalType": "address",
          "name": "operator",
          "type": "address"
        },
        {
          "internalType": "bool",
          "name": "approved",
          "type": "bool"
        }
      ],
      "name": "setApprovalForAll",
      "outputs": [],
      "stateMutability": "nonpayable",
      "type": "function"
    },
    {
      "inputs": [
        {
          "internalType": "string",
          "name": "_newBaseExtension",
          "type": "string"
        }
      ],
      "name": "setBaseExtension",
      "outputs": [],
      "stateMutability": "nonpayable",
      "type": "function"
    },
    {
      "inputs": [
        {
          "internalType": "string",
          "name": "_newBaseURI",
          "type": "string"
        }
      ],
      "name": "setBaseURI",
      "outputs": [],
      "stateMutability": "nonpayable",
      "type": "function"
    },
    {
      "inputs": [
        {
          "internalType": "uint256",
          "name": "_newCost",
          "type": "uint256"
        }
      ],
      "name": "setCost",
      "outputs": [],
      "stateMutability": "nonpayable",
      "type": "function"
    },
    {
      "inputs": [
        {
          "internalType": "uint256",
          "name": "_limit",
          "type": "uint256"
        }
      ],
      "name": "setNftPerAddressLimit",
      "outputs": [],
      "stateMutability": "nonpayable",
      "type": "function"
    },
    {
      "inputs": [
        {
          "internalType": "string",
          "name": "_notRevealedURI",
          "type": "string"
        }
      ],
      "name": "setNotRevealedURI",
      "outputs": [],
      "stateMutability": "nonpayable",
      "type": "function"
    },
    {
      "inputs": [
        {
          "internalType": "uint256",
          "name": "_newmaxMintAmount",
          "type": "uint256"
        }
      ],
      "name": "setmaxMintAmount",
      "outputs": [],
      "stateMutability": "nonpayable",
      "type": "function"
    },
    {
      "inputs": [
        {
          "internalType": "bytes4",
          "name": "interfaceId",
          "type": "bytes4"
        }
      ],
      "name": "supportsInterface",
      "outputs": [
        {
          "internalType": "bool",
          "name": "",
          "type": "bool"
        }
      ],
      "stateMutability": "view",
      "type": "function"
    },
    {
      "inputs": [],
      "name": "symbol",
      "outputs": [
        {
          "internalType": "string",
          "name": "",
          "type": "string"
        }
      ],
      "stateMutability": "view",
      "type": "function"
    },
    {
      "inputs": [
        {
          "internalType": "uint256",
          "name": "index",
          "type": "uint256"
        }
      ],
      "name": "tokenByIndex",
      "outputs": [
        {
          "internalType": "uint256",
          "name": "",
          "type": "uint256"
        }
      ],
      "stateMutability": "view",
      "type": "function"
    },
    {
      "inputs": [
        {
          "internalType": "address",
          "name": "owner",
          "type": "address"
        },
        {
          "internalType": "uint256",
          "name": "index",
          "type": "uint256"
        }
      ],
      "name": "tokenOfOwnerByIndex",
      "outputs": [
        {
          "internalType": "uint256",
          "name": "",
          "type": "uint256"
        }
      ],
      "stateMutability": "view",
      "type": "function"
    },
    {
      "inputs": [
        {
          "internalType": "uint256",
          "name": "tokenId",
          "type": "uint256"
        }
      ],
      "name": "tokenURI",
      "outputs": [
        {
          "internalType": "string",
          "name": "",
          "type": "string"
        }
      ],
      "stateMutability": "view",
      "type": "function"
    },
    {
      "inputs": [],
      "name": "totalSupply",
      "outputs": [
        {
          "internalType": "uint256",
          "name": "",
          "type": "uint256"
        }
      ],
      "stateMutability": "view",
      "type": "function"
    },
    {
      "inputs": [
        {
          "internalType": "address",
          "name": "from",
          "type": "address"
        },
        {
          "internalType": "address",
          "name": "to",
          "type": "address"
        },
        {
          "internalType": "uint256",
          "name": "tokenId",
          "type": "uint256"
        }
      ],
      "name": "transferFrom",
      "outputs": [],
      "stateMutability": "nonpayable",
      "type": "function"
    },
    {
      "inputs": [
        {
          "internalType": "address",
          "name": "newOwner",
          "type": "address"
        }
      ],
      "name": "transferOwnership",
      "outputs": [],
      "stateMutability": "nonpayable",
      "type": "function"
    },
    {
      "inputs": [
        {
          "internalType": "address",
          "name": "_owner",
          "type": "address"
        }
      ],
      "name": "walletOfOwner",
      "outputs": [
        {
          "internalType": "uint256[]",
          "name": "",
          "type": "uint256[]"
        }
      ],
      "stateMutability": "view",
      "type": "function"
    },
    {
      "inputs": [],
      "name": "withdraw",
      "outputs": [],
      "stateMutability": "payable",
      "type": "function"
    }
  ],
  "bytecode": "0x608060405260405180602001604052806000815250600c90805190602001906200002b92919062000385565b506611c37937e08000600e55611b39600f556014601055600160115560146012556000601360006101000a81548160ff0219169083151502179055506001601360016101000a81548160ff0219169083151502179055503480156200008f57600080fd5b506040516200556f3803806200556f8339818101604052810190620000b59190620004a7565b83838160009080519060200190620000cf92919062000385565b508060019080519060200190620000e892919062000385565b5050506200010b620000ff6200013760201b60201c565b6200013f60201b60201c565b6200011c826200020560201b60201c565b6200012d81620002b060201b60201c565b505050506200076a565b600033905090565b6000600a60009054906101000a900473ffffffffffffffffffffffffffffffffffffffff16905081600a60006101000a81548173ffffffffffffffffffffffffffffffffffffffff021916908373ffffffffffffffffffffffffffffffffffffffff1602179055508173ffffffffffffffffffffffffffffffffffffffff168173ffffffffffffffffffffffffffffffffffffffff167f8be0079c531659141344cd1fd0a4f28419497f9722a3daafe3b4186f6b6457e060405160405180910390a35050565b620002156200013760201b60201c565b73ffffffffffffffffffffffffffffffffffffffff166200023b6200035b60201b60201c565b73ffffffffffffffffffffffffffffffffffffffff161462000294576040517f08c379a00000000000000000000000000000000000000000000000000000000081526004016200028b906200059e565b60405180910390fd5b80600b9080519060200190620002ac92919062000385565b5050565b620002c06200013760201b60201c565b73ffffffffffffffffffffffffffffffffffffffff16620002e66200035b60201b60201c565b73ffffffffffffffffffffffffffffffffffffffff16146200033f576040517f08c379a000000000000000000000000000000000000000000000000000000000815260040162000336906200059e565b60405180910390fd5b80600d90805190602001906200035792919062000385565b5050565b6000600a60009054906101000a900473ffffffffffffffffffffffffffffffffffffffff16905090565b828054620003939062000666565b90600052602060002090601f016020900481019282620003b7576000855562000403565b82601f10620003d257805160ff191683800117855562000403565b8280016001018555821562000403579182015b8281111562000402578251825591602001919060010190620003e5565b5b50905062000412919062000416565b5090565b5b808211156200043157600081600090555060010162000417565b5090565b60006200044c6200044684620005e9565b620005c0565b9050828152602081018484840111156200046557600080fd5b6200047284828562000630565b509392505050565b600082601f8301126200048c57600080fd5b81516200049e84826020860162000435565b91505092915050565b60008060008060808587031215620004be57600080fd5b600085015167ffffffffffffffff811115620004d957600080fd5b620004e7878288016200047a565b945050602085015167ffffffffffffffff8111156200050557600080fd5b62000513878288016200047a565b935050604085015167ffffffffffffffff8111156200053157600080fd5b6200053f878288016200047a565b925050606085015167ffffffffffffffff8111156200055d57600080fd5b6200056b878288016200047a565b91505092959194509250565b6000620005866020836200061f565b9150620005938262000741565b602082019050919050565b60006020820190508181036000830152620005b98162000577565b9050919050565b6000620005cc620005df565b9050620005da82826200069c565b919050565b6000604051905090565b600067ffffffffffffffff82111562000607576200060662000701565b5b620006128262000730565b9050602081019050919050565b600082825260208201905092915050565b60005b838110156200065057808201518184015260208101905062000633565b8381111562000660576000848401525b50505050565b600060028204905060018216806200067f57607f821691505b60208210811415620006965762000695620006d2565b5b50919050565b620006a78262000730565b810181811067ffffffffffffffff82111715620006c957620006c862000701565b5b80604052505050565b7f4e487b7100000000000000000000000000000000000000000000000000000000600052602260045260246000fd5b7f4e487b7100000000000000000000000000000000000000000000000000000000600052604160045260246000fd5b6000601f19601f8301169050919050565b7f4f776e61626c653a2063616c6c6572206973206e6f7420746865206f776e6572600082015250565b614df5806200077a6000396000f3fe6080604052600436106102515760003560e01c80636c0360eb11610139578063b88d4fde116100b6578063d5abeb011161007a578063d5abeb0114610889578063da3ef23f146108b4578063e985e9c5146108dd578063f14536b51461091a578063f2c4ce1e14610945578063f2fde38b1461096e57610251565b8063b88d4fde146107a4578063ba7d2c76146107cd578063c6682862146107f8578063c87b56dd14610823578063d0eb26b01461086057610251565b806395d89b41116100fd57806395d89b4114610701578063a0712d681461072c578063a22cb46514610748578063a414673314610771578063a475b5dd1461078d57610251565b80636c0360eb1461062e57806370a0823114610659578063715018a6146106965780637f00c7a6146106ad5780638da5cb5b146106d657610251565b806323b872dd116101d257806344a0d68a1161019657806344a0d68a1461050c5780634f6ccce714610535578063518302271461057257806355f804b31461059d5780635c975abb146105c65780636352211e146105f157610251565b806323b872dd146104365780632f745c591461045f5780633ccfd60b1461049c57806342842e0e146104a6578063438b6300146104cf57610251565b8063095ea7b311610219578063095ea7b31461034f57806313faede61461037857806318160ddd146103a357806318cae269146103ce578063239c70ae1461040b57610251565b806301ffc9a71461025657806302329a291461029357806306fdde03146102bc578063081812fc146102e7578063081c8c4414610324575b600080fd5b34801561026257600080fd5b5061027d60048036038101906102789190613894565b610997565b60405161028a9190613f5e565b60405180910390f35b34801561029f57600080fd5b506102ba60048036038101906102b5919061386b565b610a11565b005b3480156102c857600080fd5b506102d1610aaa565b6040516102de9190613f79565b60405180910390f35b3480156102f357600080fd5b5061030e60048036038101906103099190613927565b610b3c565b60405161031b9190613ed5565b60405180910390f35b34801561033057600080fd5b50610339610bc1565b6040516103469190613f79565b60405180910390f35b34801561035b57600080fd5b506103766004803603810190610371919061382f565b610c4f565b005b34801561038457600080fd5b5061038d610d67565b60405161039a919061429b565b60405180910390f35b3480156103af57600080fd5b506103b8610d6d565b6040516103c5919061429b565b60405180910390f35b3480156103da57600080fd5b506103f560048036038101906103f091906136c4565b610d7a565b604051610402919061429b565b60405180910390f35b34801561041757600080fd5b50610420610d92565b60405161042d919061429b565b60405180910390f35b34801561044257600080fd5b5061045d60048036038101906104589190613729565b610d98565b005b34801561046b57600080fd5b506104866004803603810190610481919061382f565b610df8565b604051610493919061429b565b60405180910390f35b6104a4610e9d565b005b3480156104b257600080fd5b506104cd60048036038101906104c89190613729565b610f99565b005b3480156104db57600080fd5b506104f660048036038101906104f191906136c4565b610fb9565b6040516105039190613f3c565b60405180910390f35b34801561051857600080fd5b50610533600480360381019061052e9190613927565b6110b3565b005b34801561054157600080fd5b5061055c60048036038101906105579190613927565b611139565b604051610569919061429b565b60405180910390f35b34801561057e57600080fd5b506105876111d0565b6040516105949190613f5e565b60405180910390f35b3480156105a957600080fd5b506105c460048036038101906105bf91906138e6565b6111e3565b005b3480156105d257600080fd5b506105db611279565b6040516105e89190613f5e565b60405180910390f35b3480156105fd57600080fd5b5061061860048036038101906106139190613927565b61128c565b6040516106259190613ed5565b60405180910390f35b34801561063a57600080fd5b5061064361133e565b6040516106509190613f79565b60405180910390f35b34801561066557600080fd5b50610680600480360381019061067b91906136c4565b6113cc565b60405161068d919061429b565b60405180910390f35b3480156106a257600080fd5b506106ab611484565b005b3480156106b957600080fd5b506106d460048036038101906106cf9190613927565b61150c565b005b3480156106e257600080fd5b506106eb611592565b6040516106f89190613ed5565b60405180910390f35b34801561070d57600080fd5b506107166115bc565b6040516107239190613f79565b60405180910390f35b61074660048036038101906107419190613927565b61164e565b005b34801561075457600080fd5b5061076f600480360381019061076a91906137f3565b6118f7565b005b61078b60048036038101906107869190613927565b611a78565b005b34801561079957600080fd5b506107a2611d20565b005b3480156107b057600080fd5b506107cb60048036038101906107c69190613778565b611db9565b005b3480156107d957600080fd5b506107e2611e1b565b6040516107ef919061429b565b60405180910390f35b34801561080457600080fd5b5061080d611e21565b60405161081a9190613f79565b60405180910390f35b34801561082f57600080fd5b5061084a60048036038101906108459190613927565b611eaf565b6040516108579190613f79565b60405180910390f35b34801561086c57600080fd5b5061088760048036038101906108829190613927565b612008565b005b34801561089557600080fd5b5061089e61208e565b6040516108ab919061429b565b60405180910390f35b3480156108c057600080fd5b506108db60048036038101906108d691906138e6565b612094565b005b3480156108e957600080fd5b5061090460048036038101906108ff91906136ed565b61212a565b6040516109119190613f5e565b60405180910390f35b34801561092657600080fd5b5061092f6121be565b60405161093c919061429b565b60405180910390f35b34801561095157600080fd5b5061096c600480360381019061096791906138e6565b6121c4565b005b34801561097a57600080fd5b50610995600480360381019061099091906136c4565b61225a565b005b60007f780e9d63000000000000000000000000000000000000000000000000000000007bffffffffffffffffffffffffffffffffffffffffffffffffffffffff1916827bffffffffffffffffffffffffffffffffffffffffffffffffffffffff19161480610a0a5750610a0982612352565b5b9050919050565b610a19612434565b73ffffffffffffffffffffffffffffffffffffffff16610a37611592565b73ffffffffffffffffffffffffffffffffffffffff1614610a8d576040517f08c379a0000000000000000000000000000000000000000000000000000000008152600401610a849061417b565b60405180910390fd5b80601360006101000a81548160ff02191690831515021790555050565b606060008054610ab9906145a4565b80601f0160208091040260200160405190810160405280929190818152602001828054610ae5906145a4565b8015610b325780601f10610b0757610100808354040283529160200191610b32565b820191906000526020600020905b815481529060010190602001808311610b1557829003601f168201915b5050505050905090565b6000610b478261243c565b610b86576040517f08c379a0000000000000000000000000000000000000000000000000000000008152600401610b7d9061415b565b60405180910390fd5b6004600083815260200190815260200160002060009054906101000a900473ffffffffffffffffffffffffffffffffffffffff169050919050565b600d8054610bce906145a4565b80601f0160208091040260200160405190810160405280929190818152602001828054610bfa906145a4565b8015610c475780601f10610c1c57610100808354040283529160200191610c47565b820191906000526020600020905b815481529060010190602001808311610c2a57829003601f168201915b505050505081565b6000610c5a8261128c565b90508073ffffffffffffffffffffffffffffffffffffffff168373ffffffffffffffffffffffffffffffffffffffff161415610ccb576040517f08c379a0000000000000000000000000000000000000000000000000000000008152600401610cc2906141fb565b60405180910390fd5b8073ffffffffffffffffffffffffffffffffffffffff16610cea612434565b73ffffffffffffffffffffffffffffffffffffffff161480610d195750610d1881610d13612434565b61212a565b5b610d58576040517f08c379a0000000000000000000000000000000000000000000000000000000008152600401610d4f9061409b565b60405180910390fd5b610d6283836124a8565b505050565b600e5481565b6000600880549050905090565b60146020528060005260406000206000915090505481565b60105481565b610da9610da3612434565b82612561565b610de8576040517f08c379a0000000000000000000000000000000000000000000000000000000008152600401610ddf9061423b565b60405180910390fd5b610df383838361263f565b505050565b6000610e03836113cc565b8210610e44576040517f08c379a0000000000000000000000000000000000000000000000000000000008152600401610e3b90613f9b565b60405180910390fd5b600660008473ffffffffffffffffffffffffffffffffffffffff1673ffffffffffffffffffffffffffffffffffffffff168152602001908152602001600020600083815260200190815260200160002054905092915050565b610ea5612434565b73ffffffffffffffffffffffffffffffffffffffff16610ec3611592565b73ffffffffffffffffffffffffffffffffffffffff1614610f19576040517f08c379a0000000000000000000000000000000000000000000000000000000008152600401610f109061417b565b60405180910390fd5b6000610f23611592565b73ffffffffffffffffffffffffffffffffffffffff1647604051610f4690613ec0565b60006040518083038185875af1925050503d8060008114610f83576040519150601f19603f3d011682016040523d82523d6000602084013e610f88565b606091505b5050905080610f9657600080fd5b50565b610fb483838360405180602001604052806000815250611db9565b505050565b60606000610fc6836113cc565b905060008167ffffffffffffffff81111561100a577f4e487b7100000000000000000000000000000000000000000000000000000000600052604160045260246000fd5b6040519080825280602002602001820160405280156110385781602001602082028036833780820191505090505b50905060005b828110156110a8576110508582610df8565b828281518110611089577f4e487b7100000000000000000000000000000000000000000000000000000000600052603260045260246000fd5b60200260200101818152505080806110a090614607565b91505061103e565b508092505050919050565b6110bb612434565b73ffffffffffffffffffffffffffffffffffffffff166110d9611592565b73ffffffffffffffffffffffffffffffffffffffff161461112f576040517f08c379a00000000000000000000000000000000000000000000000000000000081526004016111269061417b565b60405180910390fd5b80600e8190555050565b6000611143610d6d565b8210611184576040517f08c379a000000000000000000000000000000000000000000000000000000000815260040161117b9061425b565b60405180910390fd5b600882815481106111be577f4e487b7100000000000000000000000000000000000000000000000000000000600052603260045260246000fd5b90600052602060002001549050919050565b601360019054906101000a900460ff1681565b6111eb612434565b73ffffffffffffffffffffffffffffffffffffffff16611209611592565b73ffffffffffffffffffffffffffffffffffffffff161461125f576040517f08c379a00000000000000000000000000000000000000000000000000000000081526004016112569061417b565b60405180910390fd5b80600b90805190602001906112759291906134e8565b5050565b601360009054906101000a900460ff1681565b6000806002600084815260200190815260200160002060009054906101000a900473ffffffffffffffffffffffffffffffffffffffff169050600073ffffffffffffffffffffffffffffffffffffffff168173ffffffffffffffffffffffffffffffffffffffff161415611335576040517f08c379a000000000000000000000000000000000000000000000000000000000815260040161132c906140db565b60405180910390fd5b80915050919050565b600b805461134b906145a4565b80601f0160208091040260200160405190810160405280929190818152602001828054611377906145a4565b80156113c45780601f10611399576101008083540402835291602001916113c4565b820191906000526020600020905b8154815290600101906020018083116113a757829003601f168201915b505050505081565b60008073ffffffffffffffffffffffffffffffffffffffff168273ffffffffffffffffffffffffffffffffffffffff16141561143d576040517f08c379a0000000000000000000000000000000000000000000000000000000008152600401611434906140bb565b60405180910390fd5b600360008373ffffffffffffffffffffffffffffffffffffffff1673ffffffffffffffffffffffffffffffffffffffff168152602001908152602001600020549050919050565b61148c612434565b73ffffffffffffffffffffffffffffffffffffffff166114aa611592565b73ffffffffffffffffffffffffffffffffffffffff1614611500576040517f08c379a00000000000000000000000000000000000000000000000000000000081526004016114f79061417b565b60405180910390fd5b61150a600061289b565b565b611514612434565b73ffffffffffffffffffffffffffffffffffffffff16611532611592565b73ffffffffffffffffffffffffffffffffffffffff1614611588576040517f08c379a000000000000000000000000000000000000000000000000000000000815260040161157f9061417b565b60405180910390fd5b8060108190555050565b6000600a60009054906101000a900473ffffffffffffffffffffffffffffffffffffffff16905090565b6060600180546115cb906145a4565b80601f01602080910402602001604051908101604052809291908181526020018280546115f7906145a4565b80156116445780601f1061161957610100808354040283529160200191611644565b820191906000526020600020905b81548152906001019060200180831161162757829003601f168201915b5050505050905090565b601360009054906101000a900460ff161561169e576040517f08c379a00000000000000000000000000000000000000000000000000000000081526004016116959061419b565b60405180910390fd5b60006116a8610d6d565b9050600082116116ed576040517f08c379a00000000000000000000000000000000000000000000000000000000081526004016116e49061427b565b60405180910390fd5b601054821115611732576040517f08c379a00000000000000000000000000000000000000000000000000000000081526004016117299061411b565b60405180910390fd5b61155d828261174191906143d9565b1115611782576040517f08c379a0000000000000000000000000000000000000000000000000000000008152600401611779906140fb565b60405180910390fd5b81600e546117909190614460565b3410156117d2576040517f08c379a00000000000000000000000000000000000000000000000000000000081526004016117c99061421b565b60405180910390fd5b6000601460003373ffffffffffffffffffffffffffffffffffffffff1673ffffffffffffffffffffffffffffffffffffffff168152602001908152602001600020549050601254838261182591906143d9565b1115611866576040517f08c379a000000000000000000000000000000000000000000000000000000000815260040161185d9061401b565b60405180910390fd5b6000600190505b8381116118f157601460003373ffffffffffffffffffffffffffffffffffffffff1673ffffffffffffffffffffffffffffffffffffffff16815260200190815260200160002060008154809291906118c490614607565b91905055506118de3382856118d991906143d9565b612961565b80806118e990614607565b91505061186d565b50505050565b6118ff612434565b73ffffffffffffffffffffffffffffffffffffffff168273ffffffffffffffffffffffffffffffffffffffff16141561196d576040517f08c379a00000000000000000000000000000000000000000000000000000000081526004016119649061405b565b60405180910390fd5b806005600061197a612434565b73ffffffffffffffffffffffffffffffffffffffff1673ffffffffffffffffffffffffffffffffffffffff16815260200190815260200160002060008473ffffffffffffffffffffffffffffffffffffffff1673ffffffffffffffffffffffffffffffffffffffff16815260200190815260200160002060006101000a81548160ff0219169083151502179055508173ffffffffffffffffffffffffffffffffffffffff16611a27612434565b73ffffffffffffffffffffffffffffffffffffffff167f17307eab39ab6107e8899845ad3d59bd9653f200f220920489ca2b5937696c3183604051611a6c9190613f5e565b60405180910390a35050565b601360009054906101000a900460ff1615611ac8576040517f08c379a0000000000000000000000000000000000000000000000000000000008152600401611abf9061419b565b60405180910390fd5b6000611ad2610d6d565b905060008211611b17576040517f08c379a0000000000000000000000000000000000000000000000000000000008152600401611b0e9061427b565b60405180910390fd5b601054821115611b5c576040517f08c379a0000000000000000000000000000000000000000000000000000000008152600401611b539061411b565b60405180910390fd5b6105dc8282611b6b91906143d9565b1115611bac576040517f08c379a0000000000000000000000000000000000000000000000000000000008152600401611ba3906140fb565b60405180910390fd5b6000601460003373ffffffffffffffffffffffffffffffffffffffff1673ffffffffffffffffffffffffffffffffffffffff1681526020019081526020016000205490506011548382611bff91906143d9565b1115611c40576040517f08c379a0000000000000000000000000000000000000000000000000000000008152600401611c379061401b565b60405180910390fd5b826000611c4d9190614460565b341015611c8f576040517f08c379a0000000000000000000000000000000000000000000000000000000008152600401611c869061421b565b60405180910390fd5b6000600190505b838111611d1a57601460003373ffffffffffffffffffffffffffffffffffffffff1673ffffffffffffffffffffffffffffffffffffffff1681526020019081526020016000206000815480929190611ced90614607565b9190505550611d07338285611d0291906143d9565b612961565b8080611d1290614607565b915050611c96565b50505050565b611d28612434565b73ffffffffffffffffffffffffffffffffffffffff16611d46611592565b73ffffffffffffffffffffffffffffffffffffffff1614611d9c576040517f08c379a0000000000000000000000000000000000000000000000000000000008152600401611d939061417b565b60405180910390fd5b6001601360016101000a81548160ff021916908315150217905550565b611dca611dc4612434565b83612561565b611e09576040517f08c379a0000000000000000000000000000000000000000000000000000000008152600401611e009061423b565b60405180910390fd5b611e158484848461297f565b50505050565b60115481565b600c8054611e2e906145a4565b80601f0160208091040260200160405190810160405280929190818152602001828054611e5a906145a4565b8015611ea75780601f10611e7c57610100808354040283529160200191611ea7565b820191906000526020600020905b815481529060010190602001808311611e8a57829003601f168201915b505050505081565b6060611eba8261243c565b611ef9576040517f08c379a0000000000000000000000000000000000000000000000000000000008152600401611ef0906141db565b60405180910390fd5b60001515601360019054906101000a900460ff1615151415611fa757600d8054611f22906145a4565b80601f0160208091040260200160405190810160405280929190818152602001828054611f4e906145a4565b8015611f9b5780601f10611f7057610100808354040283529160200191611f9b565b820191906000526020600020905b815481529060010190602001808311611f7e57829003601f168201915b50505050509050612003565b6000611fb16129db565b90506000815111611fd15760405180602001604052806000815250611fff565b80611fdb84612a6d565b600c604051602001611fef93929190613e8f565b6040516020818303038152906040525b9150505b919050565b612010612434565b73ffffffffffffffffffffffffffffffffffffffff1661202e611592565b73ffffffffffffffffffffffffffffffffffffffff1614612084576040517f08c379a000000000000000000000000000000000000000000000000000000000815260040161207b9061417b565b60405180910390fd5b8060118190555050565b600f5481565b61209c612434565b73ffffffffffffffffffffffffffffffffffffffff166120ba611592565b73ffffffffffffffffffffffffffffffffffffffff1614612110576040517f08c379a00000000000000000000000000000000000000000000000000000000081526004016121079061417b565b60405180910390fd5b80600c90805190602001906121269291906134e8565b5050565b6000600560008473ffffffffffffffffffffffffffffffffffffffff1673ffffffffffffffffffffffffffffffffffffffff16815260200190815260200160002060008373ffffffffffffffffffffffffffffffffffffffff1673ffffffffffffffffffffffffffffffffffffffff16815260200190815260200160002060009054906101000a900460ff16905092915050565b60125481565b6121cc612434565b73ffffffffffffffffffffffffffffffffffffffff166121ea611592565b73ffffffffffffffffffffffffffffffffffffffff1614612240576040517f08c379a00000000000000000000000000000000000000000000000000000000081526004016122379061417b565b60405180910390fd5b80600d90805190602001906122569291906134e8565b5050565b612262612434565b73ffffffffffffffffffffffffffffffffffffffff16612280611592565b73ffffffffffffffffffffffffffffffffffffffff16146122d6576040517f08c379a00000000000000000000000000000000000000000000000000000000081526004016122cd9061417b565b60405180910390fd5b600073ffffffffffffffffffffffffffffffffffffffff168173ffffffffffffffffffffffffffffffffffffffff161415612346576040517f08c379a000000000000000000000000000000000000000000000000000000000815260040161233d90613fdb565b60405180910390fd5b61234f8161289b565b50565b60007f80ac58cd000000000000000000000000000000000000000000000000000000007bffffffffffffffffffffffffffffffffffffffffffffffffffffffff1916827bffffffffffffffffffffffffffffffffffffffffffffffffffffffff1916148061241d57507f5b5e139f000000000000000000000000000000000000000000000000000000007bffffffffffffffffffffffffffffffffffffffffffffffffffffffff1916827bffffffffffffffffffffffffffffffffffffffffffffffffffffffff1916145b8061242d575061242c82612c1a565b5b9050919050565b600033905090565b60008073ffffffffffffffffffffffffffffffffffffffff166002600084815260200190815260200160002060009054906101000a900473ffffffffffffffffffffffffffffffffffffffff1673ffffffffffffffffffffffffffffffffffffffff1614159050919050565b816004600083815260200190815260200160002060006101000a81548173ffffffffffffffffffffffffffffffffffffffff021916908373ffffffffffffffffffffffffffffffffffffffff160217905550808273ffffffffffffffffffffffffffffffffffffffff1661251b8361128c565b73ffffffffffffffffffffffffffffffffffffffff167f8c5be1e5ebec7d5bd14f71427d1e84f3dd0314c0f7b2291e5b200ac8c7c3b92560405160405180910390a45050565b600061256c8261243c565b6125ab576040517f08c379a00000000000000000000000000000000000000000000000000000000081526004016125a29061407b565b60405180910390fd5b60006125b68361128c565b90508073ffffffffffffffffffffffffffffffffffffffff168473ffffffffffffffffffffffffffffffffffffffff16148061262557508373ffffffffffffffffffffffffffffffffffffffff1661260d84610b3c565b73ffffffffffffffffffffffffffffffffffffffff16145b806126365750612635818561212a565b5b91505092915050565b8273ffffffffffffffffffffffffffffffffffffffff1661265f8261128c565b73ffffffffffffffffffffffffffffffffffffffff16146126b5576040517f08c379a00000000000000000000000000000000000000000000000000000000081526004016126ac906141bb565b60405180910390fd5b600073ffffffffffffffffffffffffffffffffffffffff168273ffffffffffffffffffffffffffffffffffffffff161415612725576040517f08c379a000000000000000000000000000000000000000000000000000000000815260040161271c9061403b565b60405180910390fd5b612730838383612c84565b61273b6000826124a8565b6001600360008573ffffffffffffffffffffffffffffffffffffffff1673ffffffffffffffffffffffffffffffffffffffff168152602001908152602001600020600082825461278b91906144ba565b925050819055506001600360008473ffffffffffffffffffffffffffffffffffffffff1673ffffffffffffffffffffffffffffffffffffffff16815260200190815260200160002060008282546127e291906143d9565b92505081905550816002600083815260200190815260200160002060006101000a81548173ffffffffffffffffffffffffffffffffffffffff021916908373ffffffffffffffffffffffffffffffffffffffff160217905550808273ffffffffffffffffffffffffffffffffffffffff168473ffffffffffffffffffffffffffffffffffffffff167fddf252ad1be2c89b69c2b068fc378daa952ba7f163c4a11628f55a4df523b3ef60405160405180910390a4505050565b6000600a60009054906101000a900473ffffffffffffffffffffffffffffffffffffffff16905081600a60006101000a81548173ffffffffffffffffffffffffffffffffffffffff021916908373ffffffffffffffffffffffffffffffffffffffff1602179055508173ffffffffffffffffffffffffffffffffffffffff168173ffffffffffffffffffffffffffffffffffffffff167f8be0079c531659141344cd1fd0a4f28419497f9722a3daafe3b4186f6b6457e060405160405180910390a35050565b61297b828260405180602001604052806000815250612d98565b5050565b61298a84848461263f565b61299684848484612df3565b6129d5576040517f08c379a00000000000000000000000000000000000000000000000000000000081526004016129cc90613fbb565b60405180910390fd5b50505050565b6060600b80546129ea906145a4565b80601f0160208091040260200160405190810160405280929190818152602001828054612a16906145a4565b8015612a635780601f10612a3857610100808354040283529160200191612a63565b820191906000526020600020905b815481529060010190602001808311612a4657829003601f168201915b5050505050905090565b60606000821415612ab5576040518060400160405280600181526020017f30000000000000000000000000000000000000000000000000000000000000008152509050612c15565b600082905060005b60008214612ae7578080612ad090614607565b915050600a82612ae0919061442f565b9150612abd565b60008167ffffffffffffffff811115612b29577f4e487b7100000000000000000000000000000000000000000000000000000000600052604160045260246000fd5b6040519080825280601f01601f191660200182016040528015612b5b5781602001600182028036833780820191505090505b5090505b60008514612c0e57600182612b7491906144ba565b9150600a85612b839190614650565b6030612b8f91906143d9565b60f81b818381518110612bcb577f4e487b7100000000000000000000000000000000000000000000000000000000600052603260045260246000fd5b60200101907effffffffffffffffffffffffffffffffffffffffffffffffffffffffffffff1916908160001a905350600a85612c07919061442f565b9450612b5f565b8093505050505b919050565b60007f01ffc9a7000000000000000000000000000000000000000000000000000000007bffffffffffffffffffffffffffffffffffffffffffffffffffffffff1916827bffffffffffffffffffffffffffffffffffffffffffffffffffffffff1916149050919050565b612c8f838383612f8a565b600073ffffffffffffffffffffffffffffffffffffffff168373ffffffffffffffffffffffffffffffffffffffff161415612cd257612ccd81612f8f565b612d11565b8173ffffffffffffffffffffffffffffffffffffffff168373ffffffffffffffffffffffffffffffffffffffff1614612d1057612d0f8382612fd8565b5b5b600073ffffffffffffffffffffffffffffffffffffffff168273ffffffffffffffffffffffffffffffffffffffff161415612d5457612d4f81613145565b612d93565b8273ffffffffffffffffffffffffffffffffffffffff168273ffffffffffffffffffffffffffffffffffffffff1614612d9257612d918282613288565b5b5b505050565b612da28383613307565b612daf6000848484612df3565b612dee576040517f08c379a0000000000000000000000000000000000000000000000000000000008152600401612de590613fbb565b60405180910390fd5b505050565b6000612e148473ffffffffffffffffffffffffffffffffffffffff166134d5565b15612f7d578373ffffffffffffffffffffffffffffffffffffffff1663150b7a02612e3d612434565b8786866040518563ffffffff1660e01b8152600401612e5f9493929190613ef0565b602060405180830381600087803b158015612e7957600080fd5b505af1925050508015612eaa57506040513d601f19601f82011682018060405250810190612ea791906138bd565b60015b612f2d573d8060008114612eda576040519150601f19603f3d011682016040523d82523d6000602084013e612edf565b606091505b50600081511415612f25576040517f08c379a0000000000000000000000000000000000000000000000000000000008152600401612f1c90613fbb565b60405180910390fd5b805181602001fd5b63150b7a0260e01b7bffffffffffffffffffffffffffffffffffffffffffffffffffffffff1916817bffffffffffffffffffffffffffffffffffffffffffffffffffffffff191614915050612f82565b600190505b949350505050565b505050565b6008805490506009600083815260200190815260200160002081905550600881908060018154018082558091505060019003906000526020600020016000909190919091505550565b60006001612fe5846113cc565b612fef91906144ba565b90506000600760008481526020019081526020016000205490508181146130d4576000600660008673ffffffffffffffffffffffffffffffffffffffff1673ffffffffffffffffffffffffffffffffffffffff168152602001908152602001600020600084815260200190815260200160002054905080600660008773ffffffffffffffffffffffffffffffffffffffff1673ffffffffffffffffffffffffffffffffffffffff168152602001908152602001600020600084815260200190815260200160002081905550816007600083815260200190815260200160002081905550505b6007600084815260200190815260200160002060009055600660008573ffffffffffffffffffffffffffffffffffffffff1673ffffffffffffffffffffffffffffffffffffffff16815260200190815260200160002060008381526020019081526020016000206000905550505050565b6000600160088054905061315991906144ba565b90506000600960008481526020019081526020016000205490506000600883815481106131af577f4e487b7100000000000000000000000000000000000000000000000000000000600052603260045260246000fd5b9060005260206000200154905080600883815481106131f7577f4e487b7100000000000000000000000000000000000000000000000000000000600052603260045260246000fd5b90600052602060002001819055508160096000838152602001908152602001600020819055506009600085815260200190815260200160002060009055600880548061326c577f4e487b7100000000000000000000000000000000000000000000000000000000600052603160045260246000fd5b6001900381819060005260206000200160009055905550505050565b6000613293836113cc565b905081600660008573ffffffffffffffffffffffffffffffffffffffff1673ffffffffffffffffffffffffffffffffffffffff168152602001908152602001600020600083815260200190815260200160002081905550806007600084815260200190815260200160002081905550505050565b600073ffffffffffffffffffffffffffffffffffffffff168273ffffffffffffffffffffffffffffffffffffffff161415613377576040517f08c379a000000000000000000000000000000000000000000000000000000000815260040161336e9061413b565b60405180910390fd5b6133808161243c565b156133c0576040517f08c379a00000000000000000000000000000000000000000000000000000000081526004016133b790613ffb565b60405180910390fd5b6133cc60008383612c84565b6001600360008473ffffffffffffffffffffffffffffffffffffffff1673ffffffffffffffffffffffffffffffffffffffff168152602001908152602001600020600082825461341c91906143d9565b92505081905550816002600083815260200190815260200160002060006101000a81548173ffffffffffffffffffffffffffffffffffffffff021916908373ffffffffffffffffffffffffffffffffffffffff160217905550808273ffffffffffffffffffffffffffffffffffffffff16600073ffffffffffffffffffffffffffffffffffffffff167fddf252ad1be2c89b69c2b068fc378daa952ba7f163c4a11628f55a4df523b3ef60405160405180910390a45050565b600080823b905060008111915050919050565b8280546134f4906145a4565b90600052602060002090601f016020900481019282613516576000855561355d565b82601f1061352f57805160ff191683800117855561355d565b8280016001018555821561355d579182015b8281111561355c578251825591602001919060010190613541565b5b50905061356a919061356e565b5090565b5b8082111561358757600081600090555060010161356f565b5090565b600061359e613599846142db565b6142b6565b9050828152602081018484840111156135b657600080fd5b6135c1848285614562565b509392505050565b60006135dc6135d78461430c565b6142b6565b9050828152602081018484840111156135f457600080fd5b6135ff848285614562565b509392505050565b60008135905061361681614d63565b92915050565b60008135905061362b81614d7a565b92915050565b60008135905061364081614d91565b92915050565b60008151905061365581614d91565b92915050565b600082601f83011261366c57600080fd5b813561367c84826020860161358b565b91505092915050565b600082601f83011261369657600080fd5b81356136a68482602086016135c9565b91505092915050565b6000813590506136be81614da8565b92915050565b6000602082840312156136d657600080fd5b60006136e484828501613607565b91505092915050565b6000806040838503121561370057600080fd5b600061370e85828601613607565b925050602061371f85828601613607565b9150509250929050565b60008060006060848603121561373e57600080fd5b600061374c86828701613607565b935050602061375d86828701613607565b925050604061376e868287016136af565b9150509250925092565b6000806000806080858703121561378e57600080fd5b600061379c87828801613607565b94505060206137ad87828801613607565b93505060406137be878288016136af565b925050606085013567ffffffffffffffff8111156137db57600080fd5b6137e78782880161365b565b91505092959194509250565b6000806040838503121561380657600080fd5b600061381485828601613607565b92505060206138258582860161361c565b9150509250929050565b6000806040838503121561384257600080fd5b600061385085828601613607565b9250506020613861858286016136af565b9150509250929050565b60006020828403121561387d57600080fd5b600061388b8482850161361c565b91505092915050565b6000602082840312156138a657600080fd5b60006138b484828501613631565b91505092915050565b6000602082840312156138cf57600080fd5b60006138dd84828501613646565b91505092915050565b6000602082840312156138f857600080fd5b600082013567ffffffffffffffff81111561391257600080fd5b61391e84828501613685565b91505092915050565b60006020828403121561393957600080fd5b6000613947848285016136af565b91505092915050565b600061395c8383613e71565b60208301905092915050565b613971816144ee565b82525050565b600061398282614362565b61398c8185614390565b93506139978361433d565b8060005b838110156139c85781516139af8882613950565b97506139ba83614383565b92505060018101905061399b565b5085935050505092915050565b6139de81614500565b82525050565b60006139ef8261436d565b6139f981856143a1565b9350613a09818560208601614571565b613a128161473d565b840191505092915050565b6000613a2882614378565b613a3281856143bd565b9350613a42818560208601614571565b613a4b8161473d565b840191505092915050565b6000613a6182614378565b613a6b81856143ce565b9350613a7b818560208601614571565b80840191505092915050565b60008154613a94816145a4565b613a9e81866143ce565b94506001821660008114613ab95760018114613aca57613afd565b60ff19831686528186019350613afd565b613ad38561434d565b60005b83811015613af557815481890152600182019150602081019050613ad6565b838801955050505b50505092915050565b6000613b13602b836143bd565b9150613b1e8261474e565b604082019050919050565b6000613b366032836143bd565b9150613b418261479d565b604082019050919050565b6000613b596026836143bd565b9150613b64826147ec565b604082019050919050565b6000613b7c601c836143bd565b9150613b878261483b565b602082019050919050565b6000613b9f601c836143bd565b9150613baa82614864565b602082019050919050565b6000613bc26024836143bd565b9150613bcd8261488d565b604082019050919050565b6000613be56019836143bd565b9150613bf0826148dc565b602082019050919050565b6000613c08602c836143bd565b9150613c1382614905565b604082019050919050565b6000613c2b6038836143bd565b9150613c3682614954565b604082019050919050565b6000613c4e602a836143bd565b9150613c59826149a3565b604082019050919050565b6000613c716029836143bd565b9150613c7c826149f2565b604082019050919050565b6000613c946016836143bd565b9150613c9f82614a41565b602082019050919050565b6000613cb76024836143bd565b9150613cc282614a6a565b604082019050919050565b6000613cda6020836143bd565b9150613ce582614ab9565b602082019050919050565b6000613cfd602c836143bd565b9150613d0882614ae2565b604082019050919050565b6000613d206020836143bd565b9150613d2b82614b31565b602082019050919050565b6000613d436016836143bd565b9150613d4e82614b5a565b602082019050919050565b6000613d666029836143bd565b9150613d7182614b83565b604082019050919050565b6000613d89602f836143bd565b9150613d9482614bd2565b604082019050919050565b6000613dac6021836143bd565b9150613db782614c21565b604082019050919050565b6000613dcf6000836143b2565b9150613dda82614c70565b600082019050919050565b6000613df26012836143bd565b9150613dfd82614c73565b602082019050919050565b6000613e156031836143bd565b9150613e2082614c9c565b604082019050919050565b6000613e38602c836143bd565b9150613e4382614ceb565b604082019050919050565b6000613e5b601b836143bd565b9150613e6682614d3a565b602082019050919050565b613e7a81614558565b82525050565b613e8981614558565b82525050565b6000613e9b8286613a56565b9150613ea78285613a56565b9150613eb38284613a87565b9150819050949350505050565b6000613ecb82613dc2565b9150819050919050565b6000602082019050613eea6000830184613968565b92915050565b6000608082019050613f056000830187613968565b613f126020830186613968565b613f1f6040830185613e80565b8181036060830152613f3181846139e4565b905095945050505050565b60006020820190508181036000830152613f568184613977565b905092915050565b6000602082019050613f7360008301846139d5565b92915050565b60006020820190508181036000830152613f938184613a1d565b905092915050565b60006020820190508181036000830152613fb481613b06565b9050919050565b60006020820190508181036000830152613fd481613b29565b9050919050565b60006020820190508181036000830152613ff481613b4c565b9050919050565b6000602082019050818103600083015261401481613b6f565b9050919050565b6000602082019050818103600083015261403481613b92565b9050919050565b6000602082019050818103600083015261405481613bb5565b9050919050565b6000602082019050818103600083015261407481613bd8565b9050919050565b6000602082019050818103600083015261409481613bfb565b9050919050565b600060208201905081810360008301526140b481613c1e565b9050919050565b600060208201905081810360008301526140d481613c41565b9050919050565b600060208201905081810360008301526140f481613c64565b9050919050565b6000602082019050818103600083015261411481613c87565b9050919050565b6000602082019050818103600083015261413481613caa565b9050919050565b6000602082019050818103600083015261415481613ccd565b9050919050565b6000602082019050818103600083015261417481613cf0565b9050919050565b6000602082019050818103600083015261419481613d13565b9050919050565b600060208201905081810360008301526141b481613d36565b9050919050565b600060208201905081810360008301526141d481613d59565b9050919050565b600060208201905081810360008301526141f481613d7c565b9050919050565b6000602082019050818103600083015261421481613d9f565b9050919050565b6000602082019050818103600083015261423481613de5565b9050919050565b6000602082019050818103600083015261425481613e08565b9050919050565b6000602082019050818103600083015261427481613e2b565b9050919050565b6000602082019050818103600083015261429481613e4e565b9050919050565b60006020820190506142b06000830184613e80565b92915050565b60006142c06142d1565b90506142cc82826145d6565b919050565b6000604051905090565b600067ffffffffffffffff8211156142f6576142f561470e565b5b6142ff8261473d565b9050602081019050919050565b600067ffffffffffffffff8211156143275761432661470e565b5b6143308261473d565b9050602081019050919050565b6000819050602082019050919050565b60008190508160005260206000209050919050565b600081519050919050565b600081519050919050565b600081519050919050565b6000602082019050919050565b600082825260208201905092915050565b600082825260208201905092915050565b600081905092915050565b600082825260208201905092915050565b600081905092915050565b60006143e482614558565b91506143ef83614558565b9250827fffffffffffffffffffffffffffffffffffffffffffffffffffffffffffffffff0382111561442457614423614681565b5b828201905092915050565b600061443a82614558565b915061444583614558565b925082614455576144546146b0565b5b828204905092915050565b600061446b82614558565b915061447683614558565b9250817fffffffffffffffffffffffffffffffffffffffffffffffffffffffffffffffff04831182151516156144af576144ae614681565b5b828202905092915050565b60006144c582614558565b91506144d083614558565b9250828210156144e3576144e2614681565b5b828203905092915050565b60006144f982614538565b9050919050565b60008115159050919050565b60007fffffffff0000000000000000000000000000000000000000000000000000000082169050919050565b600073ffffffffffffffffffffffffffffffffffffffff82169050919050565b6000819050919050565b82818337600083830152505050565b60005b8381101561458f578082015181840152602081019050614574565b8381111561459e576000848401525b50505050565b600060028204905060018216806145bc57607f821691505b602082108114156145d0576145cf6146df565b5b50919050565b6145df8261473d565b810181811067ffffffffffffffff821117156145fe576145fd61470e565b5b80604052505050565b600061461282614558565b91507fffffffffffffffffffffffffffffffffffffffffffffffffffffffffffffffff82141561464557614644614681565b5b600182019050919050565b600061465b82614558565b915061466683614558565b925082614676576146756146b0565b5b828206905092915050565b7f4e487b7100000000000000000000000000000000000000000000000000000000600052601160045260246000fd5b7f4e487b7100000000000000000000000000000000000000000000000000000000600052601260045260246000fd5b7f4e487b7100000000000000000000000000000000000000000000000000000000600052602260045260246000fd5b7f4e487b7100000000000000000000000000000000000000000000000000000000600052604160045260246000fd5b6000601f19601f8301169050919050565b7f455243373231456e756d657261626c653a206f776e657220696e646578206f7560008201527f74206f6620626f756e6473000000000000000000000000000000000000000000602082015250565b7f4552433732313a207472616e7366657220746f206e6f6e20455243373231526560008201527f63656976657220696d706c656d656e7465720000000000000000000000000000602082015250565b7f4f776e61626c653a206e6577206f776e657220697320746865207a65726f206160008201527f6464726573730000000000000000000000000000000000000000000000000000602082015250565b7f4552433732313a20746f6b656e20616c7265616479206d696e74656400000000600082015250565b7f6d6178204e465420706572206164647265737320657863656564656400000000600082015250565b7f4552433732313a207472616e7366657220746f20746865207a65726f2061646460008201527f7265737300000000000000000000000000000000000000000000000000000000602082015250565b7f4552433732313a20617070726f766520746f2063616c6c657200000000000000600082015250565b7f4552433732313a206f70657261746f7220717565727920666f72206e6f6e657860008201527f697374656e7420746f6b656e0000000000000000000000000000000000000000602082015250565b7f4552433732313a20617070726f76652063616c6c6572206973206e6f74206f7760008201527f6e6572206e6f7220617070726f76656420666f7220616c6c0000000000000000602082015250565b7f4552433732313a2062616c616e636520717565727920666f7220746865207a6560008201527f726f206164647265737300000000000000000000000000000000000000000000602082015250565b7f4552433732313a206f776e657220717565727920666f72206e6f6e657869737460008201527f656e7420746f6b656e0000000000000000000000000000000000000000000000602082015250565b7f6d6178204e4654206c696d697420657863656564656400000000000000000000600082015250565b7f6d6178206d696e7420616d6f756e74207065722073657373696f6e206578636560008201527f6564656400000000000000000000000000000000000000000000000000000000602082015250565b7f4552433732313a206d696e7420746f20746865207a65726f2061646472657373600082015250565b7f4552433732313a20617070726f76656420717565727920666f72206e6f6e657860008201527f697374656e7420746f6b656e0000000000000000000000000000000000000000602082015250565b7f4f776e61626c653a2063616c6c6572206973206e6f7420746865206f776e6572600082015250565b7f74686520636f6e74726163742069732070617573656400000000000000000000600082015250565b7f4552433732313a207472616e73666572206f6620746f6b656e2074686174206960008201527f73206e6f74206f776e0000000000000000000000000000000000000000000000602082015250565b7f4552433732314d657461646174613a2055524920717565727920666f72206e6f60008201527f6e6578697374656e7420746f6b656e0000000000000000000000000000000000602082015250565b7f4552433732313a20617070726f76616c20746f2063757272656e74206f776e6560008201527f7200000000000000000000000000000000000000000000000000000000000000602082015250565b50565b7f696e73756666696369656e742066756e64730000000000000000000000000000600082015250565b7f4552433732313a207472616e736665722063616c6c6572206973206e6f74206f60008201527f776e6572206e6f7220617070726f766564000000000000000000000000000000602082015250565b7f455243373231456e756d657261626c653a20676c6f62616c20696e646578206f60008201527f7574206f6620626f756e64730000000000000000000000000000000000000000602082015250565b7f6e65656420746f206d696e74206174206c656173742031204e46540000000000600082015250565b614d6c816144ee565b8114614d7757600080fd5b50565b614d8381614500565b8114614d8e57600080fd5b50565b614d9a8161450c565b8114614da557600080fd5b50565b614db181614558565b8114614dbc57600080fd5b5056fea2646970667358221220cb3fd4c5785e4467b3ddf992dd618877fa0cc593ef37f8904a3bba43a9f0a3a064736f6c63430008040033",
  "linkReferences": {},
  "deployedLinkReferences": {}
}